:100000000C942A000C943C000C943C000C943C0092
:100010000C943C000C943C000C943C000C943C0070
:100020000C943C000C943C000C943C000C943C0060
:100030000C943C000C943C000C943C000C943C0050
:100040000C943C000C943C000C943C000C943C0040
:100050000C943C0011241FBECFE5D8E0DEBFCDBF1D
:1000600020E0A0E6B0E001C01D92A336B207E1F7A0
:100070000E94F1000C94BE020C940000CF93C0E0EB
:1000800041E064E48C2F0E94DB00CF5FC830C1F7F1
:1000900041E062E481E00E94DB0041E062E485E04F
:1000A0000E94DB00C0E042E061E48C2F0E947500FA
:1000B000CF5FC830C1F7CF910895C0E040E650E06F
:1000C00061E48C2F0E94840080916000813029F4CB
:1000D00064E48C2F0E94E40004C064E48C2F0E942E
:1000E000E900CF5FC83051F7E8CFCF93C42F42303B
:1000F00021F442E00E94F80003C040E00E94F800B2
:10010000C0936100CF9108950F931F93CF93DF9316
:100110001F92CDB7DEB78A01AE014F5F5F4F0E94DD
:100120005E0280916100843019F128F4823041F040
:10013000833091F03AC0853081F1863021F135C0AD
:100140008981813019F4F80110822FC081112DC0EE
:1001500081E0F801808329C08981813019F4F80198
:10016000108223C0811121C081E0F80180831DC06D
:100170008981813019F4F801808317C0811115C07D
:10018000F801108212C08981811104C081E0F80158
:1001900080830BC0F801108208C08981813019F476
:1001A000F801808302C0F80110820F90DF91CF9197
:1001B0001F910F910895CF93C42F41E00E94F80042
:1001C000C0936200CF910895409162000E94D501D2
:1001D000089541E090916200911140E00E94D501A4
:1001E00008950E943E000E945D0080E090E0089526
:1001F000623409F43FC018F4613441F00895633467
:1002000009F46CC0643409F49DC00895413069F468
:100210004AB321E030E0B90102C0660F771F8A952A
:10022000E2F7CB01842B8ABB089541110EC04AB37B
:1002300021E030E0B90102C0660F771F8A95E2F72E
:10024000CB01809584238ABB0895423009F0ACC06D
:100250004AB321E030E0B90102C0660F771F8A95EA
:10026000E2F7CB01962F909594239ABB9BB3892BF1
:100270008BBB0895413069F447B321E030E0B90108
:1002800002C0660F771F8A95E2F7CB01842B87BBEC
:10029000089541110EC047B321E030E0B90102C01A
:1002A000660F771F8A95E2F7CB018095842387BB81
:1002B0000895423009F078C047B321E030E0B90139
:1002C00002C0660F771F8A95E2F7CB01962F9095B3
:1002D000942397BB98B3892B88BB0895413069F468
:1002E00044B321E030E0B90102C0660F771F8A9560
:1002F000E2F7CB01842B84BB089541110EC044B3B7
:1003000021E030E0B90102C0660F771F8A95E2F75D
:10031000CB018095842384BB0895423009F044C00A
:1003200044B321E030E0B90102C0660F771F8A951F
:10033000E2F7CB01962F9095942394BB95B3892B2C
:1003400085BB0895413069F441B321E030E0B90143
:1003500002C0660F771F8A95E2F7CB01842B81BB21
:10036000089541110EC041B321E030E0B90102C04F
:10037000660F771F8A95E2F7CB018095842381BBB6
:100380000895423089F441B321E030E0B90102C060
:10039000660F771F8A95E2F7CB01962F90959423ED
:1003A00091BB92B3892B82BB0895623451F118F44A
:1003B000613441F00895633409F442C0643409F4AF
:1003C0005EC00895413069F44BB321E030E0B901DB
:1003D00002C0660F771F8A95E2F7CB01842B8BBB97
:1003E000089541116AC04BB321E030E0B90102C069
:1003F000660F771F8A95E2F7CB01809584238BBB2C
:100400000895413069F448B321E030E0B90102C0F9
:10041000660F771F8A95E2F7CB01842B88BB08957E
:1004200041114BC048B321E030E0B90102C0660F72
:10043000771F8A95E2F7CB018095842388BB0895C6
:10044000413069F445B321E030E0B90102C0660FE4
:10045000771F8A95E2F7CB01842B85BB0895411164
:100460002CC045B321E030E0B90102C0660F771F10
:100470008A95E2F7CB018095842385BB08954130AE
:1004800069F442B321E030E0B90102C0660F771F82
:100490008A95E2F7CB01842B82BB089541110DC0F0
:1004A00042B321E030E0B90102C0660F771F8A95A0
:1004B000E2F7CB018095842382BB08956234F9F082
:1004C00018F4613439F00895633471F1643409F437
:1004D00040C0089569B321E030E0082E02C0220F29
:1004E000331F0A94E2F770E026233723B90102C0D4
:1004F000759567958A95E2F7FA016083089566B36A
:1005000021E030E0082E02C0220F331F0A94E2F7E8
:1005100070E026233723B90102C0759567958A9547
:10052000E2F7FA016083089563B321E030E0082E1A
:1005300002C0220F331F0A94E2F770E0262337230C
:10054000B90102C0759567958A95E2F7FA01608353
:10055000089560B321E030E0082E02C0220F331F5F
:100560000A94E2F770E026233723B90102C075959B
:1005700067958A95E2F7FA0160830895F894FFCFB2
:00000001FF
