S010000048656C6C6F4156522E7372656337
S11300000C942A000C943C000C943C000C943C008E
S11300100C943C000C943C000C943C000C943C006C
S11300200C943C000C943C000C943C000C943C005C
S11300300C943C000C943C000C943C000C943C004C
S11300400C943C000C943C000C943C000C943C003C
S11300500C943C0011241FBECFE5D8E0DEBFCDBF19
S113006020E0A0E6B0E001C01D92A336B207E1F79C
S11300700E94F1000C941A020C940000CF93C0E08B
S113008041E064E48C2F0E94DB00CF5FC830C1F7ED
S113009041E062E481E00E94DB0041E062E485E04B
S11300A00E94DB00C0E042E061E48C2F0E947500F6
S11300B0CF5FC830C1F7CF910895C0E040E650E06B
S11300C061E48C2F0E94840080916000813029F4C7
S11300D064E48C2F0E94E40004C064E48C2F0E942A
S11300E0E900CF5FC83051F7E8CFCF93C42F423037
S11300F021F442E00E94290103C040E00E9429014A
S1130100C0936100CF9108950F931F93CF93DF9312
S11301101F92CDB7DEB78A01AE014F5F5F4F0E94D9
S1130120E40180916100843019F128F4823041F0B7
S1130130833091F03AC0853081F1863021F135C0A9
S11301408981813019F4F80110822FC081112DC0EA
S113015081E0F801808329C08981813019F4F80194
S1130160108223C0811121C081E0F80180831DC069
S11301708981813019F4F801808317C0811115C079
S1130180F801108212C08981811104C081E0F80154
S113019080830BC0F801108208C08981813019F472
S11301A0F801808302C0F80110820F90DF91CF9193
S11301B01F910F910895CF93C42F41E00E9429010C
S11301C0C0936200CF910895409162000E94A10102
S11301D0089541E090916200911140E00E94A101D4
S11301E008950E943E000E945D0080E090E0089522
S11301F0FB01908121E030E002C0220F331F8A9579
S1130200E2F7292B20830895FB01908121E030E05F
S113021002C0220F331F8A95E2F7209529232083F9
S11302200895DA01ED91FC91DB014C9121E030E07D
S1130230082E02C0220F331F0A94E2F750E0242351
S11302403523A90102C0559547958A95E2F7408365
S11302500895CF93C82F623429F118F4613439F02A
S11302606EC06334C9F1643409F450C068C04130CD
S113027029F46AE370E00E94F80061C0411105C0EE
S11302806AE370E00E9404015AC0423009F057C08A
S11302906AE370E00E9404016BE370E08C2F0E941B
S11302A0F8004DC0413029F467E370E00E94F80083
S11302B046C0411105C067E370E00E9404013FC0DD
S11302C04230E9F567E370E00E94040168E370E0FE
S11302D08C2F0E94F80033C0413029F464E370E0AD
S11302E00E94F8002CC0411105C064E370E00E9434
S11302F0040125C0423019F564E370E00E94040152
S113030065E370E08C2F0E94F80019C0413029F495
S113031061E370E00E94F80012C0411105C061E37E
S113032070E00E9404010BC0423049F461E370E0C4
S11303300E94040162E370E08C2F0E94F800CF91C8
S113034008956234B9F018F4613431F008956334D7
S1130350F9F0643459F10895413029F46BE370E005
S11303600E94F800089541112EC06BE370E00E94D2
S113037004010895413029F468E370E00E94F80014
S11303800895411120C068E370E00E9404010895BB
S1130390413029F465E370E00E94F80008954111AA
S11303A012C065E370E00E9404010895413029F40D
S11303B062E370E00E94F8000895411104C062E312
S11303C070E00E9404010895CF93DF9300D0CDB76D
S11303D0DEB75A834983623489F018F4613431F00A
S11303E024C0633499F06434C9F01FC0AE014F5F78
S11303F05F4F69E370E00E94110117C0AE014F5FC7
S11304005F4F66E370E00E9411010FC0AE014F5FC1
S11304105F4F69E370E00E94110107C0AE014F5FB6
S11304205F4F69E370E00E9411010F900F90DF911C
S10B0430CF910895F894FFCF69
S9030000FC
